:0E00000056C273C3FDCFFCCFFBCFFACFF9CFB2
:10000E00F8CFF7CFF6CFF5CFF4CFF3CFF2CFF1CFC6
:10001E00F0CFEFCFEECFEDCF040E1F1F000000008C
:10002E000000001F1F0E0400040A00151F00000030
:10003E00000200051F00080000020E0E0300000063
:10004E0000040A011F000400000000001F0A0E0039
:10005E00001F0E041F0000001027E80364000A00B2
:10006E00010000100001100001000000000090418E
:10007E000000D84100007041000020421F1C1F1ECE
:10008E001F1E1F1F1E1F1E1F1F1F1F1F1F1F1E1E77
:10009E001E1E1E1D000000000000000000000000DB
:1000AE000000000000000000000000000000000042
:1000BE000000000000000000000000000000000032
:1000CE000000000000000000000000000000000022
:1000DE000000000000000000000000000000000012
:1000EE000000000000000000000000000000000002
:1000FE0025640073756E006D6F6E00747565007704
:10010E00656400746875006672690073617400201E
:10011E00002020203C253032643E3A2025303264C7
:10012E00203A202530326420002020202025303235
:10013E0064203A3C253032643E3A20253032642029
:10014E00002020202025303264203A2025303264D1
:10015E00203A3C253032643E20003C253032753E3C
:10016E002F2025303275202F20253032642020009C
:10017E002025303275202F3C253032753E2F20251C
:10018E003032642020002025303275202F2025307B
:10019E003275202F3C253032643E2000202530322F
:1001AE0075202F2025303275202F202530326420E7
:1001BE00003C003E00312E54696D65203C2020200D
:1001CE0020202020202020202000322E4461746523
:1001DE002020202020202020202020202000312E12
:1001EE0054696D65202020202020202020202020F2
:1001FE002000322E44617465203C202020202020D7
:10020E00202020202000332E54656D702648756DF9
:10021E00203C2020202020202000312E53657420E9
:10022E0054696D6520203C202020202020200032A3
:10023E002E54696D65205479706520202020202071
:10024E00202000312E5365742054696D65202020C6
:10025E0020202020202000322E54696D65205479F4
:10026E007065203C202020202020200020202020EF
:10027E00205365742054696D65203A20202020009B
:10028E00636C6F636B206D6F64653A3234682F3127
:10029E0032683F00202020203C3234683E2020204F
:1002AE0031326820202020200020202020203234CF
:1002BE00682020203C3132683E2020202000312E44
:1002CE00446174652054797065203C2020202020E4
:1002DE00202000322E536574204461746520202046
:1002EE0020202020202000312E4461746520547976
:1002FE007065202020202020202000322E5365748F
:10030E00204461746520203C2020202020202000E5
:10031E006461746520747970653F00203C73686178
:10032E006D73693E202020206D696C616469200028
:10033E0020207368616D7369202020203C6D696CEC
:10034E006164693E002020202020536574204461A2
:10035E007465203A202020202000253032753A2561
:10036E003032753A253032640020504D0020414D18
:10037E0000253032752F253032752F25303264200E
:10038E0000543A00483A000001002D4E414E0049FB
:10039E004E46000080C00100020078000C004003B1
:1003AE008A000C004C039600040060010101040059
:1003BE006401050104006801090104006C010D01CE
:1003CE00040070011101040074011501040078018C
:1003DE00190102007C011D0102007E011D010200B7
:1003EE0080011D01020082011D0102008401BF0176
:1003FE0002008601C10115008801C30114009D0190
:10040E00D8011400B101EC011400C5010002140062
:10041E00D90114021500ED012802140002023D025A
:10042E0014001602510215002A02650214003F0242
:10043E007A02140053028E0215006702A202150002
:10044E007C02B70215009102CC021400A602E10252
:10045E001400BA02F5021500CE0209030B00E302E6
:10046E001E031500EE022903150003033E031500BB
:10047E001803530304002D037703040031037B0399
:10048E00030035038F0303003803920309000400B1
:10049E00F40001005803960302005C03A20300005F
:1004AE00F894EE27ECBBF1E0FBBFEBBFE5BFF8E144
:1004BE00F1BDE1BD8DE0A2E0BB27ED938A95E9F792
:1004CE0080E094E0A0E6ED930197E9F7E4EAF3E02B
:1004DE0085919591009761F0A591B5910590159034
:1004EE00BF01F00105900D920197E1F7FB01F0CFEE
:1004FE00EFE5EDBFE4E0EEBFC0E6D1E0ADC4AA93F8
:10050E005EDDEA81EE0FEE0FEE0FE0640E2F10E0CF
:10051E00183060F40A930395EC81FD813196EC83DB
:10052E00FD833197A49195D61F5FF2CF38C72197DF
:10053E00F4D8E270F1F0F3D8A63058F4F3D8EEEF19
:10054E00F0E0F4D8F6D8F8D884E044D82896F9D854
:10055E00FED8E5D8A73009F4F4D8E1D8A63041F496
:10056E00A5E09CD6A8E09AD6A7E098D6A6E096D6A7
:10057E002AC0D5D8A13019F4A0E6B1E0ABD6CFD8B9
:10058E00A23019F4A4E6B1E0A5D6C9D8A33019F467
:10059E00A8E6B1E09FD6C3D8A43019F4ACE6B1E01A
:1005AE0099D6BDD8A53019F4A0E7B1E093D6B7D847
:1005BE00A63019F4A4E7B1E08DD6B1D8A73019F45E
:1005CE00A8E7B1E087D6BFC6C4D8ACE7B1E0C5D8BE
:1005DE00C9D8CAD8BED8AEE7B1E0BFD8A1E00FC027
:1005EE00C6D8A0E8B1E076D6BFD8C1D8C4D8BCD89A
:1005FE00BED8A2E8B1E06ED6B7D8B9D8A0E04ED634
:10060E00B3D80895BAD839F48DD8EFE1F1E0BED859
:10061E00C0D8C1D8C2D8AC81A13039F483D8E7E3B1
:10062E00F1E0B4D8B6D8B7D8B8D8AC81A23039F486
:10063E0079D8EFE4F1E0AAD8ACD8ADD8AED887D847
:10064E00AFC69BD849F46ED8E8E6F1E0AAD8ACD88C
:10065E00ADD8A3D87CD86BDFAC81A13049F462D879
:10066E00EEE7F1E09ED8A0D8A1D897D870D85FDF7A
:10067E00AC81A23049F456D8E4E9F1E092D894D88E
:10068E0095D88BD864D853DFAC81A33079F44AD88F
:10069E00EAEAF1E086D888D889D87FD858D8A4E875
:1006AE00B1E018D644DFA6E8B1E014D679C6AA9315
:1006BE007FD8E053F84FBF01DF01E4E0F0E07BD8D4
:1006CE0011F47CD841F47AD829F4DB01E0E9F1E0A9
:1006DE0072D809F002C0E1E036C635C60A921A9207
:1006EE00FA926A937A938A939A93AA93BA93EA9315
:1006FE00FA93EFB7EA93249762DCFF2410E000E050
:10070E00829BFECFE89420F8F894E6E2F0E00ED853
:10071E00A0E0F5DEEEE2F0E009D8A1E0F0DE829B8B
:10072E0038C2ACD5AEE14ED84FD8003031F4A8E87F
:10073E00B1E0D0D5ADE9B1E04BD8013031F4A1EB49
:10074E00B1E048D8A5ECB1E043D8023019F4A9EDD8
:10075E00B1E040D841D831F444D821F447D811F44F
:10076E004AD809F001C0F6CF9B9907C09B9BFECFDC
:10077E000F5F033011F434DF02E09A9907C09A9BA1
:10078E00FECF01500F3F11F41FDF00E09C9900C215
:10079E009C9BFECF003009F015C1E6D731D8829B65
:1007AE000FC112D8F0FC07C0ADEEB1E093D5A2E0B8
:1007BE00B2E00ED806C0A6E1B2E00CD8AAE2B2E0D2
:1007CE0089D514D831F408D821F40BD811F413D8E4
:1007DE0009F001C0F6CF9A9907C09A9BFECFF0FCA4
:1007EE0002C0F2DE01C00CD89B9908C09B9BFECFC5
:1007FE00F0FE02C0F5DE02C06894F0F89C99DFC0EE
:10080E009C9BFECFF0FCACC0FED710E037D5DCD7FA
:10081E00AFE3B2E05FD59C9B9CC0FED7DDD731F431
:10082E00E0D721F4E8D711F4E1D709F001C0F6CFF3
:10083E009A993FC0F3D791F48394E8E1E81509F44F
:10084E008824EAD7EFD79A9908C08394E8E1E8158F
:10085E0009F48824E1D7E9D7F6CF2BC0E130A0E028
:10086E00FA0791F4D394ECE3ED1509F4DD24D4D713
:10087E00D9D79A9908C0D394ECE3ED1509F4DD2489
:10088E00CBD7D3D7F6CF15C0E230A0E0FA0789F464
:10089E00C394ECE3EC1509F4CC24BED7C3D79A99D4
:1008AE0008C0C394ECE3EC1509F4CC24B5D7BDD73E
:1008BE00F6CF9B9945C0B2D7A1F48A94EFEFE81515
:1008CE0011F4E7E18E2EA8D7ADD79B9909C08A9473
:1008DE00EFEFE81511F4E7E18E2E9ED7A6D7F5CFF0
:1008EE002FC0E130A0E0FA07A1F4DA94EFEFED1596
:1008FE0011F4EBE3DE2E90D795D79B9909C0DA94CD
:10090E00EFEFED1511F4EBE3DE2E86D78ED7F5CF94
:10091E0017C0E230A0E0FA0799F4CA94EFEFEC1595
:10092E0011F4EBE3CE2E78D77DD79B9909C0CA94EC
:10093E00EFEFEC1511F4EBE3CE2E6ED776D7F5CFA5
:10094E00829906C0829BFECF1F5F133009F410E020
:10095E0062CF9C9BFECF8A92DA92AC2D22D42FC00E
:10096E00E894F1F89C9B29C089D42ED7A3E5B2E078
:10097E005ED7E17019F0A7E6B2E002C0ACE7B2E0D4
:10098E00A9D4A0E09C9BA1E0E0E0BCDA0E2EA0E092
:10099E00829BA1E0E0E0B6DAE02199F782990CC0E3
:1009AE00829BFECFBAD6E17019F047D7EE7F02C018
:1009BE0044D7E160AE2FC9D3D5CF9C9BFECFEFCEEF
:1009CE00829BFECF013009F0E3C058D419D7CCD6A4
:1009DE00829BDCC0F9D6F0FC07C0A1E9B2E07AD464
:1009EE00A6EAB2E0F5D606C0AAEBB2E0F3D6AEECBC
:1009FE00B2E070D4FBD631F4EFD621F4F2D611F476
:100A0E00FAD609F001C0F6CF9A9907C09A9BFECF8D
:100A1E00F0FC02C0D9DD01C0F3D69B9908C09B9BA8
:100A2E00FECFF0FE02C0DCDD02C06894F0F89C99A7
:100A3E00ACC09C9BFECFF0FC28C09C9B23C01ED458
:100A4E00E1E0FED6A3EEB2E0F2D6E27019F0AEEE21
:100A5E00B2E002C0A3E0B3E03DD4C8D611F4CBD6C9
:100A6E0009F001C0FACF82990CC0829BFECF55D6F9
:100A7E00E27019F0E2D6ED7F02C0DFD6E260AE2F53
:100A8E0064D3DBCF9C9BFECF80C0DDD610E045D675
:100A9E00E27009F078C0F2D397D6A8E1B3E01AD489
:100AAE009C9B6BC0DCD6A2D631F4A5D621F494D68D
:100ABE0011F497D609F001C0F6CF829906C0829B39
:100ACE00FECF1F5F143009F410E09A9955C0103014
:100ADE00D1F49394E4E6E91509F49924C0D6C1D66D
:100AEE009A9908C09394E4E6E91509F49924B7D6C7
:100AFE00BBD6F6CFA92DDBDDE03011F0EDE101C064
:100B0E00ECE1E0934103113099F46394EDE0E615C6
:100B1E0011F4E1E06E2EA3D6A4D69A9909C063947F
:100B2E00EDE0E61511F4E1E06E2E99D69DD6F5CFE7
:100B3E00123079F49BD610F4E1E07E2E90D691D649
:100B4E009A9907C093D610F4E1E07E2E88D68CD603
:100B5E00F7CF133089F492D619F4E1E0E0933F0316
:100B6E007ED67FD69A9908C089D619F4E1E0E09333
:100B7E003F0375D679D6F6CF93CFDBD5EA937A922B
:100B8E006A92A92D2BD39C9BFECF22CF829BFECFA8
:100B9E00C6CD829BFECF789419DA2696E991EFBFE7
:100BAE00F991E991B991A991999189917991699167
:100BBE00F99019900990189568D6EF97669782E587
:100BCE00A0E0B0E0E2EAF0E004DAF5D900E010E0EF
:100BDE0020E030E050E0A098A8985AD6AE81A93215
:100BEE0028F459D65FD661D665D6F8CFA19866D6C9
:100BFE00A998A19A88E998E00197F1F7E2E020D64A
:100C0E00A19862D6A53108F0B4C063D69999F9CFF0
:100C1E0055D65AD6AE3208F0ACC05BD6999BF9CFFA
:100C2E004DD652D6AE3208F0A4C053D69999F9CF0C
:100C3E0045D62ED6AE81A83208F546D6A23208F099
:100C4E0098C0DE01A95ABF4FEC91EF5FEC93999BD0
:100C5E00F4CF34D639D6A93208F08BC03AD699994A
:100C6E00F9CF19D6AE0FBF1FFE01E95AFF4FE08133
:100C7E003AD6ED93FC9322D61DD6DCCF09D6AE81A3
:100C8E00A03148F408D631D624F033D634D62E2BE4
:100C9E003F2B10D6F4CFFCD5AE81A03150F429D61F
:100CAE00709632D624F025D626D60E2B1F2B02D6C2
:100CBE00F3CFEED5AE81A83060F41BD6B09624D615
:100CCE0034F0AE81E7E0EA1BA1E001D95E2BF2D54C
:100CDE00F1CFF8010DD94E2FE02FDE01A65ABF4FEE
:100CEE00EC93F90105D9DE01A75ABF4FEC93E22F21
:100CFE00DE01A85ABF4FEC93F9010BD6DE01A55ABF
:100D0E00BF4F0D90BC91A02D27D917FF09C01F779B
:100D1E00F801FFD5A0E0B0E080E89FEB15D802C047
:100D2E00F801F7D5DE01A35ABF4F0D90BC91A02D4F
:100D3E0013D9A42FBB27FE01E65AFF4FE081D3D56E
:100D4E00B1D5FE01E75AFF4FE081CDD5ABD5FE01FF
:100D5E00E85AFF4FE081C7D5A5D5EFEFF0E0EA23C3
:100D6E00FB23DF01E52FBFD5EA17FB0711F4E1E006
:100D7E0001C0E0E027D9EF96A0960895AA931BD95B
:100D8E0010E020E030E040E050E0AA24BB244424F0
:100D9E00E1E05E2EAE818BDCE03011F0EDE101C0C2
:100DAE00ECE1E093410310E0EF819DD53197A12F47
:100DBE00BAD5AE17BF0754F4E12F95D5E05CFC4FC2
:100DCE00E08191D52E0F3F1F1F5FEECF10E0E8851B
:100DDE008AD52E0F3F1F2035E0E03E07CCF489D593
:100DEE00E053F84FEE56F2405F01AE81A1505FDC4A
:100DFE00E03031F0F901E15EFE4FAF01EEE105C0EA
:100E0E00F901E25EFE4FAF01EDE1E09357030AC038
:100E1E0070D5E053F84FED56F2405F01F901EF54F3
:100E2E00F040AF014B3BE0E05E0724F44032E0E0DF
:100E3E005E070CF407C04032E0E05E0714F075D593
:100E4E00FACF06C04F31E0E05E0714F06ED5FACF50
:100E5E00442EB8D8299608956497E8E3E2BB8A98A1
:100E6E00EBB7E064EBBFE1E0E5BFE0E4EABFE0E84A
:100E7E00E8B9E0E0E0BFE6B916D662D561D5A0E0EC
:100E8E0069D17894A4E136D2BED4EDE3EC1568F4C2
:100E9E00E8E0EA9355D5A0E084D1E2E0EA93ECE0F5
:100EAE00EA93EA93A1EE9AD14ED54DD5E6E3F0E062
:100EBE003DD4A3E024DBEEE3F0E038D4A4E01FDB66
:100ECE00E6E4F0E033D4A5E01ADBEEE4F0E02ED455
:100EDE00A6E015DBE6E5F0E029D4A7E010DBEEE5B1
:100EEE00F0E024D4A8E00BDB18D41E2F20FE34C073
:100EFE00EEE1EC1519F0E0E0EC1511F4E89420F8B1
:100F0E0082D410FD08C0ECE0E81520F46894F0F8E7
:100F1E008E1A01C075D4EBE3F3E008D4E8E6F3E0F3
:100F2E0035D437D438D439D44FD4ABE3B3E0D2D19F
:100F3E00F0FE02C010FF01C003C0ADE2B3E0CAD1A3
:100F4E00F0FC02C010FF01C003C0A1E3B3E0C2D1A8
:100F5E00A4E8B3E0F9D5CACF689420F88FD1DDD3D9
:100F6E001E2F71D4A92DBB27E4E6F0E0E3D79E2E09
:100F7E0011FF12C07A926A92A92D00DFD501E4E624
:100F8E00F0E0D8D75F01E3D4D1D3F501B6D7FCD7C3
:100F9E00E52DD2D3E42D04C0DAD403D405D4E72D45
:100FAE00FF2766277727F0D7F8D3CAD4A1E056D10A
:100FBE00DE0118968FD1BBDAFE013496B7D3DE016F
:100FCE001296FADDE03019F1EC81FD816E817F81A0
:100FDE00DBD7E1E0EA93DE0151961BD0EEE030D490
:100FEE00A5E3B3E077D1DE011C9674D1B6D4CCD78D
:100FFE00E1E0EA93DE0155960CD0EEE0EA93A1E033
:10100E002DD1A8E3B3E066D1DE01509663D16ECF49
:10101E00FFCF3BD42497E0E0E883E983EA83EFE354
:10102E00EB83CDD7EB85FC85EF3FAFEFFA0729F4C5
:10103E0096D4A8E9B3E037D37AC0EF3FAFE7FA070B
:10104E0029F48DD4A9E9B3E02ED371C0AC85AA23BF
:10105E0032F488D483D58BD48FD4EDE2EC93A8856B
:10106E00A73010F0E6E0E8871885E12F1150E03048
:10107E0021F089D48DD492D4F8CF95D415D677D4C7
:10108E0010E0E0E0F0E060E87FE388D48CD4EFD6A7
:10109E0060F079D491D482D41F5F173228F05FD4D8
:1010AE00ADE9B3E000D343C0F1CF103021F464D4E6
:1010BE00E0E3EC931EC0E12F1150E030D1F063D489
:1010CE0067D4A0E0B0E080E09FE3EED5DF01CB0176
:1010DE00DAD264D468D486D674D50E2F4DD472D499
:1010EE0052D40BD7A7D530D672D458D7D6D53FD435
:1010FE00E2CFE885E030B9F03FD4EEE2EC93E8853C
:10110E00E150E887EF5F79F062D456D430D42AD418
:10111E0058D50E2F31D456D45AD4EFD68BD53ED7C0
:10112E00BCD525D4ECCFAE81BF81E0E0EC934ED799
:10113E002D960895AA931A934FD453D4A0E0D1D4E8
:10114E001E2FC5D4E12F188197C0AA9345D4A8812C
:10115E004CD492C0AA93EA81E370EA83E981E0302D
:10116E0019F0EA81E061EA83E881E03019F0EA8162
:10117E00E068EA833CD4A7E0CFD4AA8136D4B8C0C5
:10118E0084D335D4A0E0C8D42CD434D4A881B9816A
:10119E00EC9330D433D4AC81BD81EC9398D42696A5
:1011AE000895AA9324D4A0E030D434D438D41DD4D6
:1011BE009FC06BD31CD4A3E0AFD413D4A1E091D4C1
:1011CE0033D4EC9317D4AC81BD81EC9313D416D4E5
:1011DE00A881B981EC937BD428960895AA9307D45D
:1011EE00A3E09AD4AB811BD415D40FD4FED359C22D
:1011FE00AA93E881E07111F0C19A01C0C198E8810B
:10120E00E07211F0C29A01C0C298E881E07411F048
:10121E00C39A01C0C398E881E07811F0C49A01C066
:10122E00C49885E08A95F1F7C59A8DE08A95F1F715
:10123E00C5988DE08A95F1F786C0AA93A881D8DF6C
:10124E00E881E295E883A881D3DF85E88A95F1F7F6
:10125E007AC0AA93A981F1DFEAD30EC0AA93A8D2CD
:10126E00E45AFC4FE081A981AE0FE7DFE981E093FC
:10127E006003E881E093610322960895A2E0DDDF2A
:10128E00A3E0A0D2ACE0D9DFA1E0D7DFA3E09AD2F1
:10129E00E0E0E0936103E09360030895AA93A881D0
:1012AE00AA3031F0E0916203A0916003AE1758F0BE
:1012BE0047D3A0916103AF5FA0936103CFDFA881F5
:1012CE00AA3009F440C0E0916003EF5FE093600341
:1012DE00AED339C0DAD21A93A981BA81ED91A9831E
:1012EE00BA831E2FE03019F0A12FD8DFF5CF188169
:1012FE0023960895AA93B99ABA9ABB9ABC9ABD9AA4
:10130E00BF9ABE9AC598C798C698E881E0936203C3
:10131E00E058E0935E03E881E054E0935F03A4E1BC
:10132E0051D28AD389D388D3A0E262DF88EC90E0D1
:10133E000197F1F7A8E281DFA4E07FDFA5E87DDF6A
:10134E00A6E07BDF9BDF219608959FD238D67BD314
:10135E001296FED53097F1F076D378D38F01309771
:10136E0061F00230E0E01E07A0F0F80131978F0126
:10137E00AA81BB811496ED93FC9365D3129669D323
:10138E003197AC81A0835FD3E3D5FF2312F05BD3FB
:10139E0060D305C058D3EFEFFFEFED93FC9316D655
:1013AE002596089572D2269706D610E0AC85BD8597
:1013BE007CD2EA89FB893196EA8BFB8B3197E491DB
:1013CE002E2FE03009F400C1E12FE03031F4253248
:1013DE0011F411E001C043D3F6C0E130A1F425327F
:1013EE0011F43DD3EFC012E040E000E02D3211F4D5
:1013FE0001E0E9C02B3211F44BE2E5C0203211F4CA
:10140E0040E2E1C002C0E23039F450E013E0203394
:10141E0011F40068D8C003C0E33009F0D4C0203303
:10142E0010F02A3308F007C0AAE05A9F502DE22F81
:10143E00E0535E0FC8C0E22FE33639F417D319D349
:10144E0015D3A481AA9319D3BDC0E33741F41BD39E
:10145E001CD3EE83FF83E8D232D11E2F09C0E037B2
:10146E0059F411D312D314D3DFD234D11E2F086006
:10147E0002600F7730E02EC0E43611F0E93611F439
:10148E00046002C0E53729F4E6E6F0E001D315E08A
:10149E000BC0E83511F4086003C0E83709F092C0BC
:1014AE00E0E7F0E0F5D214E002FF11C0ECD2EDD28D
:1014BE00F2D2AB85AA232AF4EA85FB85FCD4EBD2C3
:1014CE004DE2403011F01F5F01C00B7F03C0DBD235
:1014DE00DCD2E1D200FD10C0151770F407FF08C072
:1014EE0002FF04C00B7F242F115001C020E301C066
:1014FE0020E2B5D25150F0CF312F01FF14C0303061
:10150E0089F003FF05C0EE81FF812591C1D204C091
:10151E008BD22D91AE83BF83A2D2503009F05150A1
:10152E003150EDCF46C020E3EE81FF811AD5E8871A
:10153E00F987EE81FF813296ABD2E885F985AA85CF
:10154E00BB85AE17BF0748F02F5FA885B985EA8522
:10155E00FB85EA1BFB0B9FD2F0CF2A3328F003FF4B
:10156E0002C0295F01C0295D04FD19C0213320F49A
:10157E00A885B985119709F409C0531710F000FF1B
:10158E0001C011C020E207FF0AC020E3006102FF84
:10159E0006C00B7F4A9371D2503009F051505FD282
:1015AE00503009F051503150A885B985129708F086
:1015BE00BACF00FF07C0503029F05150E0E2EA9355
:1015CE005CD2F9CF10E0F5CEAC85BD85C1D4FAD48E
:1015DE0064960895FF92F82E2697EFD45FD2309737
:1015EE0019F4EFEFFFEF1BC0DE01169660D48D01EC
:1015FE0055D24ED2E0E0E887E987DE011A9657D43D
:10160E00A7D494D01A930A93ECEAF9E08FD0DE01B6
:10161E001A96C8DE9F0108D2E0E0EC93F901D4D40B
:10162E002A96FF900895B5D47B816A81F981E8816D
:10163E0077FB770F67FD7160972F9E5781F078F0DB
:10164E00983190F4AA27BB27882708948795B795D9
:10165E00A7959A95D1F7EA23FB23682305C0E89452
:10166E007727EE27FF2766276F77769508F4606851
:10167E0077F9A991B99189919991EA17FB076807B2
:10168E00790797FB089585D475D4CDDF78D411F4FE
:10169E0064D107C0EEF761D1A0E0B0E080E89FE32F
:1016AE00FCD224960895F1D0E991F991A991B991BE
:1016BE00CD0105900D920020E1F7FC010895E5D0D3
:1016CE00A991B991EE27FF276D91662311F03196FE
:1016DE00FBCF0895DAD0AA27BB27E991F99105909F
:1016EE00002011F01196FBCFFD010895AA93E88119
:1016FE00E295EF70AE2FAA0FAA0FEA0FEE0FA99187
:10170E00AF70EA0F0895AA93A991EE27AA5012F08E
:10171E00E05FFCCFA65FEA0F0895A8E00BCDA09185
:10172E003F030895FE01FA93EA930895FA93EA931C
:10173E000895E0913F030895FF276627772724D465
:10174E000895A5E0ABDDA4E0A9DDA3E0A7CDDE0101
:10175E00C1CDE3E1EA93A1E081CDBCDDA2E3B0E02F
:10176E00F3D1F7CFA1E09ACDA2E3B0E0EDC1E3E172
:10177E00EA93A0E073CDA0E091CDAA932497E0E088
:10178E00EA93A1E06BDDEC81E0300895CFDFE82D28
:10179E00D3CFED2DD1CFEC2DCFCF8CE01BDF6096CC
:1017AE000895C4DFE92DC8CFE62DC6CFE72DC4CFEF
:1017BE00E881F0E00895BED330970895DB01E4E6AA
:1017CE00F0E0F9CFB0E0C0C1E0E0EA93A0E046CD92
:1017DE0081DDC8CF7FDDCFCFA0E09A9BA1E0A03006
:1017EE000895A0E09B9BA1E0A0300895A0E09C9BF3
:1017FE00A1E0A0300895A0E0829BA1E0A030089562
:10180E00E894F0F80895E8E0F0E090DFEDE0F0E025
:10181E008DDFACE0B0E0B4CCA12FF4C6E12FF0E048
:10182E0030970895ACEBB2E08FC1A2E8CBCF52DD7A
:10183E00E0E0EA93A1E012DD70CFE8E0EA936DCF2D
:10184E00EA93A0E00BCDEFE3F3E070DFE7E0F0E02A
:10185E006DDFE6E0F0E06ADFA9E0B0E0AACCA12FF0
:10186E00F0C6A4EFB1E070C1A4E6ACCF7394E62D40
:10187E00F0E0E05CFC4FE081E71508955ADFEF5F82
:10188E00E0933F034CDFA8300895BA93AA930895CE
:10189E00E0E0EE830895EE81F0E0DE011796EE0FA4
:1018AE00FF1F0895AE0FBF1F0895E0E0F0E0ED9327
:1018BE00FC930895EE81EF5FEE830895E0E0DE0184
:1018CE00A95ABF4FEC930895DE01A95ABF4FAC91B0
:1018DE000895DE01A95ABF4FEC91EF5FEC9385E0BE
:1018EE008A95F1F70895F0E00895DCDF31D337974C
:1018FE000895EE81F8CFAFE0B0E056D3EA1BFB0BB4
:10190E00A1E0B0E0ECD20895DE011796EE0FFF1FB6
:10191E00ECCFF3D28FD1DF01CB01E0E0F0E060E25B
:10192E0071E460D20895B0E00895E12FDCDFE45B4E
:10193E00FC4FA081F8DF4A1B5B0B53941F5F089589
:10194E00E0E0EA930895E8E0EA93A0E0FECBFE0122
:10195E003896ECDEEFE7F3E0089507D30895EE81B5
:10196E00FF81E4CEE985FA856B857C850895E9874C
:10197E00FA876B877C870895AE81BF811196AE83FF
:10198E00BF8311970895AA81BB818C819D81089593
:10199E00EDECFCEC6CEC7DE3D7D10895EA83FB8390
:1019AE006C837D830895EA81FB816C817D81A9859D
:1019BE00BA858B859C850895E0E0F0E060E271E4E5
:1019CE00C3D10895E02FE05DEC93E02F8CCFA98575
:1019DE00BA858B859C8508956BD0A0ED9DD0A9818D
:1019EE009BC075D065D0A1ED97C096D070C060D069
:1019FE00A0ED92C0A1E075D0AE2F78CEAA81BB81AA
:101A0E00EC93A0E06ED0AE2F71CE86D0A8817BDE97
:101A1E00AE2F089581D0A98176DEAE2F08957CD0A9
:101A2E00AA8171DEAE2F0895AE81BF810895C79A47
:101A3E00A88103DCC7980895A0E3DADB88EC90E078
:101A4E000197F1F70895AA81BB810895149680D26B
:101A5E000895ED91FD913196FE93EE9308952A939C
:101A6E00AD85BE85EF85F88909950895E889F989D0
:101A7E0008953497E88BF98B0895AD85BE85EF8573
:101A8E00F88909950895F2DFF4CFA889B989DECFD8
:101A9E00EE83FF830895EA87FB870895DE011C9687
:101AAE0006D256D2089590989198889A899815C022
:101ABE0089988898EE270000819B0895809B089551
:101ACE0004D0899A02D0889AE1E06DE007C0899A25
:101ADE00889A03D08898F9DF89986BE16A95F1F7B7
:101AEE00089578E08898F1DF809BFECFEEDF889432
:101AFE0081990894889AF1DFEE1F7A9599F77A2FDB
:101B0E00772311F4899801C0899ADFDF8898E5DF81
:101B1E00889ADBDF8998D9CF78E0AA0F10F48998DC
:101B2E0001C0899ADADF8898D0DF809BFECFCDDFA7
:101B3E00889A7A9591F78998C8DF8898CEDFE1E088
:101B4E008199EE27889AC1CF109639F080ED97E0F3
:101B5E000197F1F7A8951197C9F70895309760404E
:101B6E00704009F070580895552342F4503811F41E
:101B7E00E0FF04C03196691F791F6BF050E85727BC
:101B8E0011F45F93CFC05F3F31F0660F000C579595
:101B9E006795752F08955F9300200AF0CFC0C8C0D7
:101BAE0050E8192E1522880F991F9527550F8795E6
:101BBE0050E8072E0522660F771F7527550F67957C
:101BCE000895689401C0E8945F93F2DF703818F0BE
:101BDE007F3F08F4A7C056E1571BAAF45195583021
:101BEE000EF4593030F0EFEFFFEF6FEF7FE777F93C
:101BFE001AC077275523B9F0EE0FFF1F661F771F08
:101C0E005A95D1F710C07727583028F0EF2FF62FBE
:101C1E00672F5850F9CF552331F076956795F79584
:101C2E00E7955A95D1F700200AF449D15F910895AE
:101C3E00689401C0E894309760407040B1F0002481
:101C4E0026F0772312F400943AD1172E7EE111205C
:101C5E0032F07A95EE0FFF1F661F111CF9CFEF2F92
:101C6E00F62F612D5F938ADF5F9108954F93AF0139
:101C7E00FD01DA01AB01BC01CA01402D012C142E6D
:101C8E004F910895EA0FFB1F681F0895E095F09598
:101C9E006095EF5FFF4F6F4F08955F9381DF903830
:101CAE0071F150E8152604C05F937ADF903839F150
:101CBE00703821F1572F591B2BF112F4D7DFFACFC1
:101CCE00583118F0AA27BB278827583028F0AB2F99
:101CDE00B82F88275850F9CF552329F08695B795F8
:101CEE00A7955A95D9F7502D512572F0CBDF38F4C0
:101CFE006795F795E795739513F420C0B7DF3EDF30
:101D0E005F910895D8F7FBCFEA1BFB0B680B51F0E0
:101D1E0010F40094BBDF662392F3EE0FFF1F661FD5
:101D2E007A95CBF7EE27FF27662777275F910895E1
:101D3E00EFEFFFEF6FE77FEF5F910895EFEFFFEFAC
:101D4E006FE77FE75F9108955F932ADF703851F355
:101D5E00903841F301240894791F23F41CF30020DA
:101D6E003AF3ECCF0F921F932F933F934F9311277C
:101D7E0022279927689FA0018F9F302D410D591F53
:101D8E006B9F300D411D591F8E9F27D0BF9F25D0B1
:101D9E006A9F23D0BE9F1DD0AF9F1BD0AE9F110D4B
:101DAE00291F391F491F591FE32FF42F652F522F5B
:101DBE004F913F912F911F910F9066232AF0550F4F
:101DCE00EE1FFF1F661F02C073954BF2CDDE5F91B3
:101DDE000895100D211D391F02C0200D311D491F00
:101DEE00591F08955F93DCDE703821F411200AF438
:101DFE009FCFA4CF903809F495CF01240894970B68
:101E0E001BF4D4F30020F3CF792F1F932F933F931E
:101E1E004F9311241127222733274427552790E269
:101E2E00AE17BF078607410730F0AE1BBF0B860B00
:101E3E00410B089401C08894551F221F331F111C9B
:101E4E00AA1FBB1F881F441F9A9551F7F901612DD8
:101E5E004F913F912F911F91662332F0550FEE1F38
:101E6E00FF1F661F7A9543F27FDE5F9108959923D7
:101E7E009AF0772342F0971748F029F4AE17BF0770
:101E8E00860720F031F098948894089598940894D9
:101E9E0008951894889408957723C2F7971798F3A6
:101EAE00A9F7EA17FB07680788F399F3ECCF00242C
:101EBE00AF0DB01D0895F195E195F0400895F095A0
:101ECE0060957095E195FF4F6F4F7F4F0895EE230C
:101EDE000E2EEA2F19F0EE0F0A94E9F70895EE236D
:101EEE000E2EFD0121F0EE0FFF1F0A94E1F708956B
:101EFE00EF2FFF27E7FDFFEF08956F2F660F660B9D
:101F0E00762F0895EA17E1E009F0EE2708950024F0
:101F1E00112490E1AA0FBB1F001C111C0E1A1F0AE0
:101F2E0018F40E0E1F1E01C0A1609A9599F7FD01BF
:101F3E00D0010895E894B7FF04C0A095B09511960E
:101F4E006894F7FDB8DFE3DFFD010EF4B4DF08950A
:101F5E00ED91FC9111970895ED93FD936D937C9304
:101F6E0008950590F491E02D0895E881F9816A8134
:101F7E007B810895A881B9818A819B810895E88328
:101F8E00F9836A837B8308957A936A93FA93EA932B
:101F9E0008959A938A93BA93AA930895182E862F2A
:101FAE00612D192E972F712D1B2EBF2FF12D1A2E4D
:101FBE00AE2FE12D08955A934A933A932A931A938A
:101FCE000A9308955D814C813B812A811981088194
:101FDE000895AC0FBD1F05900D928A95E1F70895F7
:00000001FF
